{
  "contractName": "Whitelist",
  "abi": [
    {
      "inputs": [],
      "stateMutability": "nonpayable",
      "type": "constructor"
    },
    {
      "anonymous": false,
      "inputs": [
        {
          "indexed": true,
          "internalType": "bytes32",
          "name": "role",
          "type": "bytes32"
        },
        {
          "indexed": true,
          "internalType": "bytes32",
          "name": "previousAdminRole",
          "type": "bytes32"
        },
        {
          "indexed": true,
          "internalType": "bytes32",
          "name": "newAdminRole",
          "type": "bytes32"
        }
      ],
      "name": "RoleAdminChanged",
      "type": "event"
    },
    {
      "anonymous": false,
      "inputs": [
        {
          "indexed": true,
          "internalType": "bytes32",
          "name": "role",
          "type": "bytes32"
        },
        {
          "indexed": true,
          "internalType": "address",
          "name": "account",
          "type": "address"
        },
        {
          "indexed": true,
          "internalType": "address",
          "name": "sender",
          "type": "address"
        }
      ],
      "name": "RoleGranted",
      "type": "event"
    },
    {
      "anonymous": false,
      "inputs": [
        {
          "indexed": true,
          "internalType": "bytes32",
          "name": "role",
          "type": "bytes32"
        },
        {
          "indexed": true,
          "internalType": "address",
          "name": "account",
          "type": "address"
        },
        {
          "indexed": true,
          "internalType": "address",
          "name": "sender",
          "type": "address"
        }
      ],
      "name": "RoleRevoked",
      "type": "event"
    },
    {
      "inputs": [],
      "name": "DEFAULT_ADMIN_ROLE",
      "outputs": [
        {
          "internalType": "bytes32",
          "name": "",
          "type": "bytes32"
        }
      ],
      "stateMutability": "view",
      "type": "function",
      "constant": true
    },
    {
      "inputs": [],
      "name": "WHITELISTED",
      "outputs": [
        {
          "internalType": "bytes32",
          "name": "",
          "type": "bytes32"
        }
      ],
      "stateMutability": "view",
      "type": "function",
      "constant": true
    },
    {
      "inputs": [],
      "name": "WHITELIST_ADMIN",
      "outputs": [
        {
          "internalType": "bytes32",
          "name": "",
          "type": "bytes32"
        }
      ],
      "stateMutability": "view",
      "type": "function",
      "constant": true
    },
    {
      "inputs": [
        {
          "internalType": "bytes32",
          "name": "role",
          "type": "bytes32"
        }
      ],
      "name": "getRoleAdmin",
      "outputs": [
        {
          "internalType": "bytes32",
          "name": "",
          "type": "bytes32"
        }
      ],
      "stateMutability": "view",
      "type": "function",
      "constant": true
    },
    {
      "inputs": [
        {
          "internalType": "bytes32",
          "name": "role",
          "type": "bytes32"
        },
        {
          "internalType": "uint256",
          "name": "index",
          "type": "uint256"
        }
      ],
      "name": "getRoleMember",
      "outputs": [
        {
          "internalType": "address",
          "name": "",
          "type": "address"
        }
      ],
      "stateMutability": "view",
      "type": "function",
      "constant": true
    },
    {
      "inputs": [
        {
          "internalType": "bytes32",
          "name": "role",
          "type": "bytes32"
        }
      ],
      "name": "getRoleMemberCount",
      "outputs": [
        {
          "internalType": "uint256",
          "name": "",
          "type": "uint256"
        }
      ],
      "stateMutability": "view",
      "type": "function",
      "constant": true
    },
    {
      "inputs": [
        {
          "internalType": "bytes32",
          "name": "role",
          "type": "bytes32"
        },
        {
          "internalType": "address",
          "name": "account",
          "type": "address"
        }
      ],
      "name": "grantRole",
      "outputs": [],
      "stateMutability": "nonpayable",
      "type": "function"
    },
    {
      "inputs": [
        {
          "internalType": "bytes32",
          "name": "role",
          "type": "bytes32"
        },
        {
          "internalType": "address",
          "name": "account",
          "type": "address"
        }
      ],
      "name": "hasRole",
      "outputs": [
        {
          "internalType": "bool",
          "name": "",
          "type": "bool"
        }
      ],
      "stateMutability": "view",
      "type": "function",
      "constant": true
    },
    {
      "inputs": [
        {
          "internalType": "bytes32",
          "name": "role",
          "type": "bytes32"
        },
        {
          "internalType": "address",
          "name": "account",
          "type": "address"
        }
      ],
      "name": "renounceRole",
      "outputs": [],
      "stateMutability": "nonpayable",
      "type": "function"
    },
    {
      "inputs": [
        {
          "internalType": "bytes32",
          "name": "role",
          "type": "bytes32"
        },
        {
          "internalType": "address",
          "name": "account",
          "type": "address"
        }
      ],
      "name": "revokeRole",
      "outputs": [],
      "stateMutability": "nonpayable",
      "type": "function"
    },
    {
      "inputs": [
        {
          "internalType": "address",
          "name": "account",
          "type": "address"
        }
      ],
      "name": "addWhitelistAdmin",
      "outputs": [],
      "stateMutability": "nonpayable",
      "type": "function"
    },
    {
      "inputs": [
        {
          "internalType": "address",
          "name": "account",
          "type": "address"
        }
      ],
      "name": "removeWhitelistAdmin",
      "outputs": [],
      "stateMutability": "nonpayable",
      "type": "function"
    },
    {
      "inputs": [
        {
          "internalType": "address",
          "name": "account",
          "type": "address"
        }
      ],
      "name": "addWhitelisted",
      "outputs": [],
      "stateMutability": "nonpayable",
      "type": "function"
    },
    {
      "inputs": [
        {
          "internalType": "address",
          "name": "account",
          "type": "address"
        }
      ],
      "name": "removeWhitelisted",
      "outputs": [],
      "stateMutability": "nonpayable",
      "type": "function"
    },
    {
      "inputs": [
        {
          "internalType": "address",
          "name": "account",
          "type": "address"
        }
      ],
      "name": "isWhitelisted",
      "outputs": [
        {
          "internalType": "bool",
          "name": "",
          "type": "bool"
        }
      ],
      "stateMutability": "view",
      "type": "function",
      "constant": true
    },
    {
      "inputs": [
        {
          "internalType": "address",
          "name": "account",
          "type": "address"
        }
      ],
      "name": "isWhitelistAdmin",
      "outputs": [
        {
          "internalType": "bool",
          "name": "",
          "type": "bool"
        }
      ],
      "stateMutability": "view",
      "type": "function",
      "constant": true
    }
  ],
  "bytecode": "0x60806040523480156200001157600080fd5b50620000447f9cc798953f1657230a000cfd0cfb877f321fc37733bbdaba923c800c0f6f63b680620000ce60201b60201c565b620000967fe799c73ff785ac053943f5d98452f7fa0bcf54da67826fc217d6094dec75c5ee7f9cc798953f1657230a000cfd0cfb877f321fc37733bbdaba923c800c0f6f63b6620000ce60201b60201c565b620000c87f9cc798953f1657230a000cfd0cfb877f321fc37733bbdaba923c800c0f6f63b6336200013060201b60201c565b620002c6565b8060008084815260200190815260200160002060020154837fbd79b86ffe0ab8e8776151514217cd7cacd52c909f66475c3af44e129f0b00ff60405160405180910390a480600080848152602001908152602001600020600201819055505050565b6200014282826200014660201b60201c565b5050565b6200017481600080858152602001908152602001600020600001620001e960201b62000b821790919060201c565b15620001e5576200018a6200022160201b60201c565b73ffffffffffffffffffffffffffffffffffffffff168173ffffffffffffffffffffffffffffffffffffffff16837f2f8788117e7eff1d82e926ec794901d17c78024a50270940304540a733656f0d60405160405180910390a45b5050565b600062000219836000018373ffffffffffffffffffffffffffffffffffffffff1660001b6200022960201b60201c565b905092915050565b600033905090565b60006200023d8383620002a360201b60201c565b620002985782600001829080600181540180825580915050600190039060005260206000200160009091909190915055826000018054905083600101600084815260200190815260200160002081905550600190506200029d565b600090505b92915050565b600080836001016000848152602001908152602001600020541415905092915050565b61106480620002d66000396000f3fe608060405234801561001057600080fd5b50600436106101005760003560e01c80637362d9c811610097578063bb5f747b11610066578063bb5f747b1461044f578063ca15c873146104a9578063d547741f146104eb578063f58af7db1461053957610100565b80637362d9c8146103275780639010d07c1461036b57806391d14854146103cd578063a217fddf1461043157610100565b80632f2ff15d116100d35780632f2ff15d146101ed57806336568abe1461023b5780633af32abf146102895780636897e974146102e357610100565b80630b71f1161461010557806310154bad14610123578063248a9ca314610167578063291d9549146101a9575b600080fd5b61010d610557565b6040518082815260200191505060405180910390f35b6101656004803603602081101561013957600080fd5b81019080803573ffffffffffffffffffffffffffffffffffffffff16906020019092919050505061057b565b005b6101936004803603602081101561017d57600080fd5b8101908080359060200190929190505050610644565b6040518082815260200191505060405180910390f35b6101eb600480360360208110156101bf57600080fd5b81019080803573ffffffffffffffffffffffffffffffffffffffff169060200190929190505050610663565b005b6102396004803603604081101561020357600080fd5b8101908080359060200190929190803573ffffffffffffffffffffffffffffffffffffffff16906020019092919050505061072c565b005b6102876004803603604081101561025157600080fd5b8101908080359060200190929190803573ffffffffffffffffffffffffffffffffffffffff1690602001909291905050506107b5565b005b6102cb6004803603602081101561029f57600080fd5b81019080803573ffffffffffffffffffffffffffffffffffffffff16906020019092919050505061084e565b60405180821515815260200191505060405180910390f35b610325600480360360208110156102f957600080fd5b81019080803573ffffffffffffffffffffffffffffffffffffffff169060200190929190505050610881565b005b6103696004803603602081101561033d57600080fd5b81019080803573ffffffffffffffffffffffffffffffffffffffff16906020019092919050505061094a565b005b6103a16004803603604081101561038157600080fd5b810190808035906020019092919080359060200190929190505050610a13565b604051808273ffffffffffffffffffffffffffffffffffffffff16815260200191505060405180910390f35b610419600480360360408110156103e357600080fd5b8101908080359060200190929190803573ffffffffffffffffffffffffffffffffffffffff169060200190929190505050610a44565b60405180821515815260200191505060405180910390f35b610439610a75565b6040518082815260200191505060405180910390f35b6104916004803603602081101561046557600080fd5b81019080803573ffffffffffffffffffffffffffffffffffffffff169060200190929190505050610a7c565b60405180821515815260200191505060405180910390f35b6104d5600480360360208110156104bf57600080fd5b8101908080359060200190929190505050610aaf565b6040518082815260200191505060405180910390f35b6105376004803603604081101561050157600080fd5b8101908080359060200190929190803573ffffffffffffffffffffffffffffffffffffffff169060200190929190505050610ad5565b005b610541610b5e565b6040518082815260200191505060405180910390f35b7fe799c73ff785ac053943f5d98452f7fa0bcf54da67826fc217d6094dec75c5ee81565b6105a57f9cc798953f1657230a000cfd0cfb877f321fc37733bbdaba923c800c0f6f63b633610a44565b610617576040517f08c379a000000000000000000000000000000000000000000000000000000000815260040180806020018281038252601f8152602001807f43616c6c6572206973206e6f7420612077686974656c6973742061646d696e0081525060200191505060405180910390fd5b6106417fe799c73ff785ac053943f5d98452f7fa0bcf54da67826fc217d6094dec75c5ee8261072c565b50565b6000806000838152602001908152602001600020600201549050919050565b61068d7f9cc798953f1657230a000cfd0cfb877f321fc37733bbdaba923c800c0f6f63b633610a44565b6106ff576040517f08c379a000000000000000000000000000000000000000000000000000000000815260040180806020018281038252601f8152602001807f43616c6c6572206973206e6f7420612077686974656c6973742061646d696e0081525060200191505060405180910390fd5b6107297fe799c73ff785ac053943f5d98452f7fa0bcf54da67826fc217d6094dec75c5ee82610ad5565b50565b6107526000808481526020019081526020016000206002015461074d610bb2565b610a44565b6107a7576040517f08c379a000000000000000000000000000000000000000000000000000000000815260040180806020018281038252602f815260200180610fa1602f913960400191505060405180910390fd5b6107b18282610bba565b5050565b6107bd610bb2565b73ffffffffffffffffffffffffffffffffffffffff168173ffffffffffffffffffffffffffffffffffffffff1614610840576040517f08c379a000000000000000000000000000000000000000000000000000000000815260040180806020018281038252602f815260200180611000602f913960400191505060405180910390fd5b61084a8282610c4d565b5050565b600061087a7fe799c73ff785ac053943f5d98452f7fa0bcf54da67826fc217d6094dec75c5ee83610a44565b9050919050565b6108ab7f9cc798953f1657230a000cfd0cfb877f321fc37733bbdaba923c800c0f6f63b633610a44565b61091d576040517f08c379a000000000000000000000000000000000000000000000000000000000815260040180806020018281038252601f8152602001807f43616c6c6572206973206e6f7420612077686974656c6973742061646d696e0081525060200191505060405180910390fd5b6109477f9cc798953f1657230a000cfd0cfb877f321fc37733bbdaba923c800c0f6f63b682610ad5565b50565b6109747f9cc798953f1657230a000cfd0cfb877f321fc37733bbdaba923c800c0f6f63b633610a44565b6109e6576040517f08c379a000000000000000000000000000000000000000000000000000000000815260040180806020018281038252601f8152602001807f43616c6c6572206973206e6f7420612077686974656c6973742061646d696e0081525060200191505060405180910390fd5b610a107f9cc798953f1657230a000cfd0cfb877f321fc37733bbdaba923c800c0f6f63b68261072c565b50565b6000610a3c82600080868152602001908152602001600020600001610ce090919063ffffffff16565b905092915050565b6000610a6d82600080868152602001908152602001600020600001610cfa90919063ffffffff16565b905092915050565b6000801b81565b6000610aa87f9cc798953f1657230a000cfd0cfb877f321fc37733bbdaba923c800c0f6f63b683610a44565b9050919050565b6000610ace600080848152602001908152602001600020600001610d2a565b9050919050565b610afb60008084815260200190815260200160002060020154610af6610bb2565b610a44565b610b50576040517f08c379a0000000000000000000000000000000000000000000000000000000008152600401808060200182810382526030815260200180610fd06030913960400191505060405180910390fd5b610b5a8282610c4d565b5050565b7f9cc798953f1657230a000cfd0cfb877f321fc37733bbdaba923c800c0f6f63b681565b6000610baa836000018373ffffffffffffffffffffffffffffffffffffffff1660001b610d3f565b905092915050565b600033905090565b610be181600080858152602001908152602001600020600001610b8290919063ffffffff16565b15610c4957610bee610bb2565b73ffffffffffffffffffffffffffffffffffffffff168173ffffffffffffffffffffffffffffffffffffffff16837f2f8788117e7eff1d82e926ec794901d17c78024a50270940304540a733656f0d60405160405180910390a45b5050565b610c7481600080858152602001908152602001600020600001610daf90919063ffffffff16565b15610cdc57610c81610bb2565b73ffffffffffffffffffffffffffffffffffffffff168173ffffffffffffffffffffffffffffffffffffffff16837ff6391f5c32d9c69d2a47ea670b442974b53935d1edc7fd64eb21e047a839171b60405160405180910390a45b5050565b6000610cef8360000183610ddf565b60001c905092915050565b6000610d22836000018373ffffffffffffffffffffffffffffffffffffffff1660001b610e62565b905092915050565b6000610d3882600001610e85565b9050919050565b6000610d4b8383610e62565b610da4578260000182908060018154018082558091505060019003906000526020600020016000909190919091505582600001805490508360010160008481526020019081526020016000208190555060019050610da9565b600090505b92915050565b6000610dd7836000018373ffffffffffffffffffffffffffffffffffffffff1660001b610e96565b905092915050565b600081836000018054905011610e40576040517f08c379a0000000000000000000000000000000000000000000000000000000008152600401808060200182810382526022815260200180610f7f6022913960400191505060405180910390fd5b826000018281548110610e4f57fe5b9060005260206000200154905092915050565b600080836001016000848152602001908152602001600020541415905092915050565b600081600001805490509050919050565b60008083600101600084815260200190815260200160002054905060008114610f725760006001820390506000600186600001805490500390506000866000018281548110610ee157fe5b9060005260206000200154905080876000018481548110610efe57fe5b9060005260206000200181905550600183018760010160008381526020019081526020016000208190555086600001805480610f3657fe5b60019003818190600052602060002001600090559055866001016000878152602001908152602001600020600090556001945050505050610f78565b60009150505b9291505056fe456e756d657261626c655365743a20696e646578206f7574206f6620626f756e6473416363657373436f6e74726f6c3a2073656e646572206d75737420626520616e2061646d696e20746f206772616e74416363657373436f6e74726f6c3a2073656e646572206d75737420626520616e2061646d696e20746f207265766f6b65416363657373436f6e74726f6c3a2063616e206f6e6c792072656e6f756e636520726f6c657320666f722073656c66a2646970667358221220f6a1a8ce45f5330eafe43040d8fa4449b945d2f62310fc6df29cafdc2305700264736f6c634300060c0033",
  "immutableReferences": {},
  "source": "// Whitelist.sol\n// SPDX-License-Identifier: MIT\n\npragma solidity >=0.4.22 <0.8.0;\n\nimport \"@openzeppelin/contracts/access/AccessControl.sol\";\n\n/*\n * Implements Whitelisting pattern using OpenZeppelin AccessRole\n */\ncontract Whitelist is AccessControl {\n    bytes32 public constant WHITELIST_ADMIN = keccak256(\"WHITELIST_ADMIN\");\n    bytes32 public constant WHITELISTED = keccak256(\"WHITELISTED\");\n\n    constructor() public {\n        _setRoleAdmin(WHITELIST_ADMIN, WHITELIST_ADMIN);\n        _setRoleAdmin(WHITELISTED, WHITELIST_ADMIN);\n        _setupRole(WHITELIST_ADMIN, msg.sender);\n    }\n\n    modifier onlyWhitelistAdmin {\n        require(hasRole(WHITELIST_ADMIN, msg.sender), \"Caller is not a whitelist admin\");\n        _;\n    }\n\n    modifier onlyWhitelisted {\n        require(hasRole(WHITELISTED, msg.sender), \"Caller is not a whitelisted\");\n        _;\n    }\n\n    function addWhitelistAdmin(address account)\n        onlyWhitelistAdmin\n        public\n    {\n        grantRole(WHITELIST_ADMIN, account);\n    }\n\n    function removeWhitelistAdmin(address account) \n        onlyWhitelistAdmin\n        public \n    {\n        revokeRole(WHITELIST_ADMIN, account);\n    }\n\n    function addWhitelisted(address account) \n        onlyWhitelistAdmin \n        public \n    {\n        grantRole(WHITELISTED, account);\n    }\n\n    function removeWhitelisted(address account) \n        onlyWhitelistAdmin\n        public \n    {\n        revokeRole(WHITELISTED, account);\n    }\n\n    function isWhitelisted(address account)\n        public\n        view\n        returns (bool)\n    {\n        return hasRole(WHITELISTED, account);\n    }\n\n    function isWhitelistAdmin(address account)\n        public\n        view\n        returns (bool)\n    {\n        return hasRole(WHITELIST_ADMIN, account);\n    }\n}\n",
  "sourcePath": "/home/carlos/work/dev/github/cbruguera/selfkey-contracts/contracts/Whitelist.sol",
  "compiler": {
    "name": "solc",
    "version": "0.6.12+commit.27d51765.Emscripten.clang"
  },
  "schemaVersion": "3.2.3",
  "updatedAt": "2020-11-03T04:55:34.515Z",
  "networkType": "ethereum",
  "devdoc": {
    "kind": "dev",
    "methods": {
      "getRoleAdmin(bytes32)": {
        "details": "Returns the admin role that controls `role`. See {grantRole} and {revokeRole}. To change a role's admin, use {_setRoleAdmin}."
      },
      "getRoleMember(bytes32,uint256)": {
        "details": "Returns one of the accounts that have `role`. `index` must be a value between 0 and {getRoleMemberCount}, non-inclusive. Role bearers are not sorted in any particular way, and their ordering may change at any point. WARNING: When using {getRoleMember} and {getRoleMemberCount}, make sure you perform all queries on the same block. See the following https://forum.openzeppelin.com/t/iterating-over-elements-on-enumerableset-in-openzeppelin-contracts/2296[forum post] for more information."
      },
      "getRoleMemberCount(bytes32)": {
        "details": "Returns the number of accounts that have `role`. Can be used together with {getRoleMember} to enumerate all bearers of a role."
      },
      "grantRole(bytes32,address)": {
        "details": "Grants `role` to `account`. If `account` had not been already granted `role`, emits a {RoleGranted} event. Requirements: - the caller must have ``role``'s admin role."
      },
      "hasRole(bytes32,address)": {
        "details": "Returns `true` if `account` has been granted `role`."
      },
      "renounceRole(bytes32,address)": {
        "details": "Revokes `role` from the calling account. Roles are often managed via {grantRole} and {revokeRole}: this function's purpose is to provide a mechanism for accounts to lose their privileges if they are compromised (such as when a trusted device is misplaced). If the calling account had been granted `role`, emits a {RoleRevoked} event. Requirements: - the caller must be `account`."
      },
      "revokeRole(bytes32,address)": {
        "details": "Revokes `role` from `account`. If `account` had been granted `role`, emits a {RoleRevoked} event. Requirements: - the caller must have ``role``'s admin role."
      }
    },
    "version": 1
  },
  "userdoc": {
    "kind": "user",
    "methods": {},
    "version": 1
  }
}